:100000000A128A11E22F00308A000408840A82074B
:1000100000344A34313458343A3425347534203479
:100020004A34313459343A342534753420344A341E
:10003000323458343A342534753420344A34323426
:1000400059343A34253475342034423431343A3416
:10005000253475342034423432343A3425347534FE
:10006000203453344E3444343A34253475340D340A
:040070000A3400341A
:100978000134013464008001840A04060319003438
:100988000406BF2CF000831203130C1ECC2CCD2CB4
:10099800C72C700899000800831603130711FF304D
:1009A80092000C3083120313970004309200080061
:1009B8002B3083120313B900A6012A08A700393087
:1009C800A8000A128A1107250A128A11080071085C
:1009D800F3007008F2000310F30CF20C0310F30C90
:1009E800F20C720883120313950070080339F200A1
:1009F80004300310F20DFF3E031DFD2C1708CF39FC
:100A0800720497000800831203132708A900172D02
:100A18002608F9002930FA002808FB000A128A1172
:100A28001B260A128A1183120313290884000A124A
:100A38008A1103200A128A11003A031D242D252D3C
:100A48000C2DA601A7010800F4007408F20002307A
:100A58000310F20DFF3E031D2C2D0310720D4138BB
:100A6800831203139F000330F3009730F200F20B58
:100A78003B2DF30B3B2D402D831203131F151F191C
:100A8800462D472D432D1E08F100831603131E081B
:100A9800F0000800700871040319532D542D812D9E
:100AA8000130F400602D01300310F00DF10DFF3E10
:100AB800031D582D0130F407F11F632D642D572DA8
:100AC80071087302031D6A2D70087202031C6D2DD4
:100AD8006E2D742D7008F2027108031CF303F302E3
:100AE80001300310F10CF00CFF3E031D752D013091
:100AF800F402031D802D812D642D7308F100720806
:100B0800F0000800F401F5017008710403198D2D37
:100B18008E2DC32D0130F6009A2D01300310F00DF3
:100B2800F10DFF3E031D922D0130F607F11F9D2D9B
:100B38009E2D912D01300310F40DF50DFF3E031D80
:100B48009F2D71087302031DAB2D70087202031CE0
:100B5800AE2DAF2DB62D7008F2027108031CF303F9
:100B6800F302741401300310F10CF00CFF3E031D66
:100B7800B72D0130F602031DC22DC32D9E2D750819
:100B8800F1007408F000080073080319CC2DCD2D6E
:100B9800D22D7308031DD12DD22DD92D71080A121B
:100BA8008A11C6240A128A111A2E7308083E840074
:100BB80083130008F400840A0008F500740875041B
:100BC8000319E72DE82D052E7308083E8400000858
:100BD800F400840A0008F500730A84000008F6008F
:100BE800840A0008F7007708803AF8007508803A08
:100BF8007802031D012E740876020318042E052EB0
:100C08001A2E730A840083130008F4007308840002
:100C180000087407F5007508840071088000730ADD
:100C2800840001308007840A0318800A08007A08C3
:100C380084008313000884000A128A1103200A1210
:100C48008A11253A031D292E2A2EC22E7A088400DD
:100C58000130800783120313CB01CC010030CF0091
:100C6800FF30CD00FF30CE007A0884000008A400D1
:100C7800240884000A128A1103200A128A11753A7C
:100C8800031D472E482EBC2E7B0884000008FF0059
:100C9800023080077F0884000008A000840A00084A
:100CA800A1007A0884002408013E8000B12E20307B
:100CB800A5000130A5022508A03E84000A30F000F6
:100CC8000030F1002108F3002008F2000A128A110E
:100CD8004E250A128A117008303E831380000A30AC
:100CE800F0000030F100831203132108F3002008FC
:100CF800F2000A128A1186250A128A1171088312D3
:100D08000313A1007008A0002008210403198D2EE8
:100D18008E2EAA2E2508031D922E932E5D2EAA2E06
:100D28002508A03E840083130008FC00FD017C0810
:100D3800F1007D08F2007908F3000A128A11C8252B
:100D48000A128A11013083120313A50720302506E1
:100D5800031DAF2EB02E942ED92E240884000A121B
:100D68008A1103200A128A11753A03195B2EBC2EC8
:100D78007A088400013083138007D92E7A0884000A
:100D8800000884000A128A1103200A128A11FC0042
:100D9800FD017C08F1007D08F2007908F3000A12D1
:100DA8008A11C8250A128A11BC2E08000F30831632
:100DB80003138500FF3086000711413083120313A7
:100DC8009F008030831603139F000A128A11D024D3
:100DD8000A128A118316031398161812181583120B
:100DE8000313981783160313181307131930990060
:100DF80000300A128A1128250A128A1170088312F3
:100E08000313BA007108BB000310BB0CBA0C031023
:100E1800BB0CBA0C3A08C0003B08C10001300A12EA
:100E28008A1128250A128A11700883120313BA003E
:100E38007108BB000310BB0CBA0C0310BB0CBA0C36
:100E48003A08C2003B08C30002300A128A1128255A
:100E58000A128A11700883120313BA007108BB00C2
:100E68000310BB0CBA0C0310BB0CBA0C3A08C40034
:100E78003B08C50003300A128A1128250A128A1174
:100E8800700883120313BA007108BB000310BB0C6F
:100E9800BA0C0310BB0CBA0C3A08C6003B08C700D2
:100EA80006080139C800060C0139C900060CBA0049
:100EB8003A0C0139CA004A08031D632F642F802F9A
:100EC8005003031D682F692F802F510803196D2FB8
:100ED8006F2F0130702F0030D100023083120313BE
:100EE800BC000430BB00B930BA00BA0B792FBB0B79
:100EF800792FBC0B792F802F831203134A08D00057
:100F080051080319882F892F9D2F480803198D2F01
:100F18008E2F932F4908031D922F932F9D2F8030DA
:100F2800F0000030F1000A128A11EB240A128A112B
:100F3800A52F0030F000F1000A128A11EB240A12E2
:100F48008A11013083120313AA004108AC0040083B
:100F5800AB004308AE004208AD004508B0004408A5
:100F6800AF004708B2004608B1004808BA00BB0104
:100F78003A08B3003B08B4004908BC00BD013C086E
:100F8800B5003D08B6005108BE00BF013E08B700D5
:100F98003F08B8000A128A11DC240A128A1141306B
:100FA80083120313BB00ED30BA00BA0BD92FBB0B69
:100FB800D92FDE2FFC2E0A128A1100280A128A1154
:100FC800BC240A128A11D0000A128A11BD240A12FE
:100FD8008A11D1008313A0308400C0300A128A110C
:100FE800BE240A128A11CB01CC01CD01CE01CF015A
:080FF80083010A128A11DA2EAE
:02400E00393F38
:00000001FF
